{
  "_format": "hh-sol-artifact-1",
  "contractName": "MusicViddle",
  "sourceName": "contracts/MusicViddle.sol",
  "abi": [
    {
      "inputs": [
        {
          "internalType": "address",
          "name": "_viddlecoin",
          "type": "address"
        }
      ],
      "stateMutability": "payable",
      "type": "constructor"
    },
    {
      "anonymous": false,
      "inputs": [
        {
          "indexed": true,
          "internalType": "address",
          "name": "previousOwner",
          "type": "address"
        },
        {
          "indexed": true,
          "internalType": "address",
          "name": "newOwner",
          "type": "address"
        }
      ],
      "name": "OwnershipTransferred",
      "type": "event"
    },
    {
      "inputs": [
        {
          "internalType": "bytes32",
          "name": "newHash",
          "type": "bytes32"
        }
      ],
      "name": "changeAnswerHash",
      "outputs": [],
      "stateMutability": "nonpayable",
      "type": "function"
    },
    {
      "inputs": [
        {
          "internalType": "bytes32",
          "name": "guess",
          "type": "bytes32"
        }
      ],
      "name": "guess",
      "outputs": [],
      "stateMutability": "nonpayable",
      "type": "function"
    },
    {
      "inputs": [],
      "name": "owner",
      "outputs": [
        {
          "internalType": "address",
          "name": "",
          "type": "address"
        }
      ],
      "stateMutability": "view",
      "type": "function"
    },
    {
      "inputs": [],
      "name": "renounceOwnership",
      "outputs": [],
      "stateMutability": "nonpayable",
      "type": "function"
    },
    {
      "inputs": [
        {
          "internalType": "address",
          "name": "newOwner",
          "type": "address"
        }
      ],
      "name": "transferOwnership",
      "outputs": [],
      "stateMutability": "nonpayable",
      "type": "function"
    }
  ],
  "bytecode": "0x6080604052604051610a61380380610a61833981810160405281019061002591906101b7565b61004161003661008860201b60201c565b61009060201b60201c565b80600260006101000a81548173ffffffffffffffffffffffffffffffffffffffff021916908373ffffffffffffffffffffffffffffffffffffffff160217905550506101e4565b600033905090565b60008060009054906101000a900473ffffffffffffffffffffffffffffffffffffffff169050816000806101000a81548173ffffffffffffffffffffffffffffffffffffffff021916908373ffffffffffffffffffffffffffffffffffffffff1602179055508173ffffffffffffffffffffffffffffffffffffffff168173ffffffffffffffffffffffffffffffffffffffff167f8be0079c531659141344cd1fd0a4f28419497f9722a3daafe3b4186f6b6457e060405160405180910390a35050565b600080fd5b600073ffffffffffffffffffffffffffffffffffffffff82169050919050565b600061018482610159565b9050919050565b61019481610179565b811461019f57600080fd5b50565b6000815190506101b18161018b565b92915050565b6000602082840312156101cd576101cc610154565b5b60006101db848285016101a2565b91505092915050565b61086e806101f36000396000f3fe608060405234801561001057600080fd5b50600436106100575760003560e01c8063715018a61461005c5780638da5cb5b14610066578063c27c0cdb14610084578063e4aa533e146100a0578063f2fde38b146100bc575b600080fd5b6100646100d8565b005b61006e6100ec565b60405161007b9190610501565b60405180910390f35b61009e60048036038101906100999190610557565b610115565b005b6100ba60048036038101906100b59190610557565b610127565b005b6100d660048036038101906100d191906105b0565b610230565b005b6100e06102b4565b6100ea6000610332565b565b60008060009054906101000a900473ffffffffffffffffffffffffffffffffffffffff16905090565b61011d6102b4565b8060018190555050565b6001548160405160200161013b91906105ec565b60405160208183030381529060405280519060200120141561022d57600260009054906101000a900473ffffffffffffffffffffffffffffffffffffffff1673ffffffffffffffffffffffffffffffffffffffff166340c10f1961019d6103f6565b60016040518363ffffffff1660e01b81526004016101bc929190610656565b600060405180830381600087803b1580156101d657600080fd5b505af11580156101ea573d6000803e3d6000fd5b5050505061022c6040518060400160405280601581526020017f596f75206775657373656420636f72726563746c7900000000000000000000008152506103fe565b5b50565b6102386102b4565b600073ffffffffffffffffffffffffffffffffffffffff168173ffffffffffffffffffffffffffffffffffffffff1614156102a8576040517f08c379a000000000000000000000000000000000000000000000000000000000815260040161029f90610702565b60405180910390fd5b6102b181610332565b50565b6102bc6103f6565b73ffffffffffffffffffffffffffffffffffffffff166102da6100ec565b73ffffffffffffffffffffffffffffffffffffffff1614610330576040517f08c379a00000000000000000000000000000000000000000000000000000000081526004016103279061076e565b60405180910390fd5b565b60008060009054906101000a900473ffffffffffffffffffffffffffffffffffffffff169050816000806101000a81548173ffffffffffffffffffffffffffffffffffffffff021916908373ffffffffffffffffffffffffffffffffffffffff1602179055508173ffffffffffffffffffffffffffffffffffffffff168173ffffffffffffffffffffffffffffffffffffffff167f8be0079c531659141344cd1fd0a4f28419497f9722a3daafe3b4186f6b6457e060405160405180910390a35050565b600033905090565b610494816040516024016104129190610816565b6040516020818303038152906040527f41304fac000000000000000000000000000000000000000000000000000000007bffffffffffffffffffffffffffffffffffffffffffffffffffffffff19166020820180517bffffffffffffffffffffffffffffffffffffffffffffffffffffffff8381831617835250505050610497565b50565b60008151905060006a636f6e736f6c652e6c6f679050602083016000808483855afa5050505050565b600073ffffffffffffffffffffffffffffffffffffffff82169050919050565b60006104eb826104c0565b9050919050565b6104fb816104e0565b82525050565b600060208201905061051660008301846104f2565b92915050565b600080fd5b6000819050919050565b61053481610521565b811461053f57600080fd5b50565b6000813590506105518161052b565b92915050565b60006020828403121561056d5761056c61051c565b5b600061057b84828501610542565b91505092915050565b61058d816104e0565b811461059857600080fd5b50565b6000813590506105aa81610584565b92915050565b6000602082840312156105c6576105c561051c565b5b60006105d48482850161059b565b91505092915050565b6105e681610521565b82525050565b600060208201905061060160008301846105dd565b92915050565b6000819050919050565b6000819050919050565b6000819050919050565b600061064061063b61063684610607565b61061b565b610611565b9050919050565b61065081610625565b82525050565b600060408201905061066b60008301856104f2565b6106786020830184610647565b9392505050565b600082825260208201905092915050565b7f4f776e61626c653a206e6577206f776e657220697320746865207a65726f206160008201527f6464726573730000000000000000000000000000000000000000000000000000602082015250565b60006106ec60268361067f565b91506106f782610690565b604082019050919050565b6000602082019050818103600083015261071b816106df565b9050919050565b7f4f776e61626c653a2063616c6c6572206973206e6f7420746865206f776e6572600082015250565b600061075860208361067f565b915061076382610722565b602082019050919050565b600060208201905081810360008301526107878161074b565b9050919050565b600081519050919050565b60005b838110156107b757808201518184015260208101905061079c565b838111156107c6576000848401525b50505050565b6000601f19601f8301169050919050565b60006107e88261078e565b6107f2818561067f565b9350610802818560208601610799565b61080b816107cc565b840191505092915050565b6000602082019050818103600083015261083081846107dd565b90509291505056fea26469706673582212204f5bc1fe366bc5dd87e5759592d247b8a45934949238f11b405da97e15d7c3a164736f6c63430008090033",
  "linkReferences": {},
  "deployedLinkReferences": {}
}